{
  "_format": "hh-sol-artifact-1",
  "contractName": "PrismPerpsEngine",
  "sourceName": "contracts/PrismPerpsEngine.sol",
  "abi": [
    {
      "inputs": [
        {
          "internalType": "address",
          "name": "_vault",
          "type": "address"
        },
        {
          "internalType": "address",
          "name": "_priceOracle",
          "type": "address"
        }
      ],
      "stateMutability": "nonpayable",
      "type": "constructor"
    },
    {
      "anonymous": false,
      "inputs": [
        {
          "indexed": true,
          "internalType": "address",
          "name": "user",
          "type": "address"
        },
        {
          "indexed": true,
          "internalType": "bytes32",
          "name": "positionId",
          "type": "bytes32"
        },
        {
          "indexed": false,
          "internalType": "uint256",
          "name": "amount",
          "type": "uint256"
        }
      ],
      "name": "FundingPaid",
      "type": "event"
    },
    {
      "anonymous": false,
      "inputs": [
        {
          "indexed": true,
          "internalType": "address",
          "name": "user",
          "type": "address"
        },
        {
          "indexed": true,
          "internalType": "bytes32",
          "name": "positionId",
          "type": "bytes32"
        },
        {
          "indexed": false,
          "internalType": "int256",
          "name": "pnl",
          "type": "int256"
        },
        {
          "indexed": false,
          "internalType": "uint256",
          "name": "exitPrice",
          "type": "uint256"
        }
      ],
      "name": "PositionClosed",
      "type": "event"
    },
    {
      "anonymous": false,
      "inputs": [
        {
          "indexed": true,
          "internalType": "address",
          "name": "user",
          "type": "address"
        },
        {
          "indexed": true,
          "internalType": "bytes32",
          "name": "positionId",
          "type": "bytes32"
        },
        {
          "indexed": true,
          "internalType": "address",
          "name": "liquidator",
          "type": "address"
        },
        {
          "indexed": false,
          "internalType": "uint256",
          "name": "reward",
          "type": "uint256"
        }
      ],
      "name": "PositionLiquidated",
      "type": "event"
    },
    {
      "anonymous": false,
      "inputs": [
        {
          "indexed": true,
          "internalType": "address",
          "name": "user",
          "type": "address"
        },
        {
          "indexed": true,
          "internalType": "bytes32",
          "name": "positionId",
          "type": "bytes32"
        },
        {
          "indexed": false,
          "internalType": "bool",
          "name": "isLong",
          "type": "bool"
        },
        {
          "indexed": false,
          "internalType": "uint256",
          "name": "size",
          "type": "uint256"
        },
        {
          "indexed": false,
          "internalType": "uint256",
          "name": "collateral",
          "type": "uint256"
        },
        {
          "indexed": false,
          "internalType": "uint256",
          "name": "leverage",
          "type": "uint256"
        },
        {
          "indexed": false,
          "internalType": "uint256",
          "name": "entryPrice",
          "type": "uint256"
        }
      ],
      "name": "PositionOpened",
      "type": "event"
    },
    {
      "inputs": [],
      "name": "FUNDING_RATE",
      "outputs": [
        {
          "internalType": "uint256",
          "name": "",
          "type": "uint256"
        }
      ],
      "stateMutability": "view",
      "type": "function"
    },
    {
      "inputs": [],
      "name": "LIQUIDATION_FEE",
      "outputs": [
        {
          "internalType": "uint256",
          "name": "",
          "type": "uint256"
        }
      ],
      "stateMutability": "view",
      "type": "function"
    },
    {
      "inputs": [],
      "name": "MAINTENANCE_MARGIN",
      "outputs": [
        {
          "internalType": "uint256",
          "name": "",
          "type": "uint256"
        }
      ],
      "stateMutability": "view",
      "type": "function"
    },
    {
      "inputs": [],
      "name": "MAX_LEVERAGE",
      "outputs": [
        {
          "internalType": "uint256",
          "name": "",
          "type": "uint256"
        }
      ],
      "stateMutability": "view",
      "type": "function"
    },
    {
      "inputs": [],
      "name": "MIN_LEVERAGE",
      "outputs": [
        {
          "internalType": "uint256",
          "name": "",
          "type": "uint256"
        }
      ],
      "stateMutability": "view",
      "type": "function"
    },
    {
      "inputs": [],
      "name": "TRADING_FEE",
      "outputs": [
        {
          "internalType": "uint256",
          "name": "",
          "type": "uint256"
        }
      ],
      "stateMutability": "view",
      "type": "function"
    },
    {
      "inputs": [],
      "name": "WEI_PER_TINYBAR",
      "outputs": [
        {
          "internalType": "uint256",
          "name": "",
          "type": "uint256"
        }
      ],
      "stateMutability": "view",
      "type": "function"
    },
    {
      "inputs": [],
      "name": "admin",
      "outputs": [
        {
          "internalType": "address",
          "name": "",
          "type": "address"
        }
      ],
      "stateMutability": "view",
      "type": "function"
    },
    {
      "inputs": [
        {
          "internalType": "bytes32",
          "name": "positionId",
          "type": "bytes32"
        }
      ],
      "name": "closePosition",
      "outputs": [],
      "stateMutability": "nonpayable",
      "type": "function"
    },
    {
      "inputs": [
        {
          "internalType": "bytes32",
          "name": "positionId",
          "type": "bytes32"
        }
      ],
      "name": "getPositionById",
      "outputs": [
        {
          "components": [
            {
              "internalType": "bytes32",
              "name": "id",
              "type": "bytes32"
            },
            {
              "internalType": "address",
              "name": "owner",
              "type": "address"
            },
            {
              "internalType": "bool",
              "name": "isLong",
              "type": "bool"
            },
            {
              "internalType": "uint256",
              "name": "size",
              "type": "uint256"
            },
            {
              "internalType": "uint256",
              "name": "collateral",
              "type": "uint256"
            },
            {
              "internalType": "uint256",
              "name": "leverage",
              "type": "uint256"
            },
            {
              "internalType": "uint256",
              "name": "entryPrice",
              "type": "uint256"
            },
            {
              "internalType": "uint256",
              "name": "timestamp",
              "type": "uint256"
            },
            {
              "internalType": "uint256",
              "name": "lastFundingTime",
              "type": "uint256"
            },
            {
              "internalType": "bool",
              "name": "isVaultHedge",
              "type": "bool"
            }
          ],
          "internalType": "struct PrismPerpsEngine.Position",
          "name": "",
          "type": "tuple"
        }
      ],
      "stateMutability": "view",
      "type": "function"
    },
    {
      "inputs": [
        {
          "internalType": "address",
          "name": "user",
          "type": "address"
        }
      ],
      "name": "getPositionInfo",
      "outputs": [
        {
          "internalType": "bool",
          "name": "isLong",
          "type": "bool"
        },
        {
          "internalType": "uint256",
          "name": "size",
          "type": "uint256"
        },
        {
          "internalType": "uint256",
          "name": "collateral",
          "type": "uint256"
        },
        {
          "internalType": "uint256",
          "name": "leverage",
          "type": "uint256"
        },
        {
          "internalType": "uint256",
          "name": "entryPrice",
          "type": "uint256"
        },
        {
          "internalType": "uint256",
          "name": "currentPrice",
          "type": "uint256"
        },
        {
          "internalType": "int256",
          "name": "unrealizedPnL",
          "type": "int256"
        },
        {
          "internalType": "uint256",
          "name": "liquidationPrice",
          "type": "uint256"
        },
        {
          "internalType": "uint256",
          "name": "marginRatio",
          "type": "uint256"
        }
      ],
      "stateMutability": "view",
      "type": "function"
    },
    {
      "inputs": [
        {
          "internalType": "bytes32",
          "name": "positionId",
          "type": "bytes32"
        }
      ],
      "name": "getPositionInfoById",
      "outputs": [
        {
          "internalType": "bool",
          "name": "isLong",
          "type": "bool"
        },
        {
          "internalType": "uint256",
          "name": "size",
          "type": "uint256"
        },
        {
          "internalType": "uint256",
          "name": "collateral",
          "type": "uint256"
        },
        {
          "internalType": "uint256",
          "name": "leverage",
          "type": "uint256"
        },
        {
          "internalType": "uint256",
          "name": "entryPrice",
          "type": "uint256"
        },
        {
          "internalType": "uint256",
          "name": "currentPrice",
          "type": "uint256"
        },
        {
          "internalType": "int256",
          "name": "unrealizedPnL",
          "type": "int256"
        },
        {
          "internalType": "uint256",
          "name": "liquidationPrice",
          "type": "uint256"
        },
        {
          "internalType": "uint256",
          "name": "marginRatio",
          "type": "uint256"
        }
      ],
      "stateMutability": "view",
      "type": "function"
    },
    {
      "inputs": [
        {
          "internalType": "address",
          "name": "user",
          "type": "address"
        }
      ],
      "name": "getUserPositions",
      "outputs": [
        {
          "internalType": "bytes32[]",
          "name": "",
          "type": "bytes32[]"
        }
      ],
      "stateMutability": "view",
      "type": "function"
    },
    {
      "inputs": [
        {
          "internalType": "bytes32",
          "name": "positionId",
          "type": "bytes32"
        }
      ],
      "name": "liquidate",
      "outputs": [],
      "stateMutability": "nonpayable",
      "type": "function"
    },
    {
      "inputs": [],
      "name": "maxLongOI",
      "outputs": [
        {
          "internalType": "uint256",
          "name": "",
          "type": "uint256"
        }
      ],
      "stateMutability": "view",
      "type": "function"
    },
    {
      "inputs": [],
      "name": "maxPositionSize",
      "outputs": [
        {
          "internalType": "uint256",
          "name": "",
          "type": "uint256"
        }
      ],
      "stateMutability": "view",
      "type": "function"
    },
    {
      "inputs": [],
      "name": "maxShortOI",
      "outputs": [
        {
          "internalType": "uint256",
          "name": "",
          "type": "uint256"
        }
      ],
      "stateMutability": "view",
      "type": "function"
    },
    {
      "inputs": [
        {
          "internalType": "bool",
          "name": "isLong",
          "type": "bool"
        },
        {
          "internalType": "uint256",
          "name": "collateralAmount",
          "type": "uint256"
        },
        {
          "internalType": "uint256",
          "name": "leverage",
          "type": "uint256"
        },
        {
          "internalType": "bool",
          "name": "isVaultHedge",
          "type": "bool"
        }
      ],
      "name": "openPosition",
      "outputs": [
        {
          "internalType": "bytes32",
          "name": "positionId",
          "type": "bytes32"
        }
      ],
      "stateMutability": "nonpayable",
      "type": "function"
    },
    {
      "inputs": [
        {
          "internalType": "address",
          "name": "vaultAddress",
          "type": "address"
        },
        {
          "internalType": "bool",
          "name": "isLong",
          "type": "bool"
        },
        {
          "internalType": "uint256",
          "name": "collateralAmount",
          "type": "uint256"
        },
        {
          "internalType": "uint256",
          "name": "leverage",
          "type": "uint256"
        }
      ],
      "name": "openPositionForVault",
      "outputs": [
        {
          "internalType": "bytes32",
          "name": "positionId",
          "type": "bytes32"
        }
      ],
      "stateMutability": "nonpayable",
      "type": "function"
    },
    {
      "inputs": [
        {
          "internalType": "bytes32",
          "name": "",
          "type": "bytes32"
        }
      ],
      "name": "positions",
      "outputs": [
        {
          "internalType": "bytes32",
          "name": "id",
          "type": "bytes32"
        },
        {
          "internalType": "address",
          "name": "owner",
          "type": "address"
        },
        {
          "internalType": "bool",
          "name": "isLong",
          "type": "bool"
        },
        {
          "internalType": "uint256",
          "name": "size",
          "type": "uint256"
        },
        {
          "internalType": "uint256",
          "name": "collateral",
          "type": "uint256"
        },
        {
          "internalType": "uint256",
          "name": "leverage",
          "type": "uint256"
        },
        {
          "internalType": "uint256",
          "name": "entryPrice",
          "type": "uint256"
        },
        {
          "internalType": "uint256",
          "name": "timestamp",
          "type": "uint256"
        },
        {
          "internalType": "uint256",
          "name": "lastFundingTime",
          "type": "uint256"
        },
        {
          "internalType": "bool",
          "name": "isVaultHedge",
          "type": "bool"
        }
      ],
      "stateMutability": "view",
      "type": "function"
    },
    {
      "inputs": [],
      "name": "priceOracle",
      "outputs": [
        {
          "internalType": "contract IPriceOracle",
          "name": "",
          "type": "address"
        }
      ],
      "stateMutability": "view",
      "type": "function"
    },
    {
      "inputs": [
        {
          "internalType": "uint256",
          "name": "_maxLong",
          "type": "uint256"
        },
        {
          "internalType": "uint256",
          "name": "_maxShort",
          "type": "uint256"
        }
      ],
      "name": "setMaxOI",
      "outputs": [],
      "stateMutability": "nonpayable",
      "type": "function"
    },
    {
      "inputs": [
        {
          "internalType": "uint256",
          "name": "_maxSize",
          "type": "uint256"
        }
      ],
      "name": "setMaxPositionSize",
      "outputs": [],
      "stateMutability": "nonpayable",
      "type": "function"
    },
    {
      "inputs": [],
      "name": "totalLongOI",
      "outputs": [
        {
          "internalType": "uint256",
          "name": "",
          "type": "uint256"
        }
      ],
      "stateMutability": "view",
      "type": "function"
    },
    {
      "inputs": [],
      "name": "totalShortOI",
      "outputs": [
        {
          "internalType": "uint256",
          "name": "",
          "type": "uint256"
        }
      ],
      "stateMutability": "view",
      "type": "function"
    },
    {
      "inputs": [
        {
          "internalType": "address",
          "name": "",
          "type": "address"
        },
        {
          "internalType": "uint256",
          "name": "",
          "type": "uint256"
        }
      ],
      "name": "userPositions",
      "outputs": [
        {
          "internalType": "bytes32",
          "name": "",
          "type": "bytes32"
        }
      ],
      "stateMutability": "view",
      "type": "function"
    },
    {
      "inputs": [],
      "name": "vault",
      "outputs": [
        {
          "internalType": "contract PrismPerpsVault",
          "name": "",
          "type": "address"
        }
      ],
      "stateMutability": "view",
      "type": "function"
    }
  ],
  "bytecode": "0x608060405269021e19e0c9bab240000060085569152d02c7e14af680000060095569152d02c7e14af6800000600a553480156200003b57600080fd5b50604051620025b9380380620025b98339810160408190526200005e91620000b8565b600080546001600160a01b03199081163317909155600180546001600160a01b0394851690831617905560028054929093169116179055620000f0565b80516001600160a01b0381168114620000b357600080fd5b919050565b60008060408385031215620000cc57600080fd5b620000d7836200009b565b9150620000e7602084016200009b565b90509250929050565b6124b980620001006000396000f3fe608060405234801561001057600080fd5b50600436106101a95760003560e01c806389c81cdd116100f9578063e0f18c4e11610097578063f65f6cd111610071578063f65f6cd1146103d2578063f851a4401461042b578063fbd1d25a1461043e578063fbfa77cf1461045157600080fd5b8063e0f18c4e14610280578063e26e7561146103b6578063e54a2ad5146103bf57600080fd5b8063aafb72e4116100d3578063aafb72e41461037c578063b182733014610385578063d11e20501461038d578063dc5632531461039657600080fd5b806389c81cdd146103605780639b45ec97146101fe578063a329dc571461037357600080fd5b806326a9c121116101665780632f0f1389116101405780632f0f13891461026d57806334c1557d14610280578063514ea4bf146102885780635e1b4d991461034d57600080fd5b806326a9c121146102315780632a4d4414146102445780632a6bc2dd1461024d57600080fd5b80630a71096e146101ae578063156b0233146101c35780631c29700e146101e25780631c4b259b146101eb57806323531b90146101fe5780632630c12f14610206575b600080fd5b6101c16101bc3660046120d3565b610464565b005b6101cf6402540be40081565b6040519081526020015b60405180910390f35b6101cf60095481565b6101cf6101f9366004612101565b610916565b6101cf600a81565b600254610219906001600160a01b031681565b6040516001600160a01b0390911681526020016101d9565b6101c161023f3660046120d3565b610e26565b6101cf600a5481565b61026061025b36600461215e565b610e72565b6040516101d99190612180565b6101c161027b3660046121c4565b610ede565b6101cf600181565b6102f36102963660046120d3565b600360208190526000918252604090912080546001820154600283015493830154600484015460058501546006860154600787015460089097015495976001600160a01b0386169760ff600160a01b90970487169791969091168a565b604080519a8b526001600160a01b0390991660208b0152961515978901979097526060880194909452608087019290925260a086015260c085015260e08401526101008301919091521515610120820152610140016101d9565b6101cf61035b3660046121e6565b610f30565b6101cf61036e366004612210565b610f61565b6101cf60085481565b6101cf60065481565b6101cf60c881565b6101cf60075481565b6103a96103a43660046120d3565b61149e565b6040516101d99190612252565b6101cf6101f481565b6101c16103cd3660046120d3565b61159d565b6103e56103e03660046120d3565b611901565b604080519915158a5260208a0198909852968801959095526060870193909352608086019190915260a085015260c084015260e0830152610100820152610120016101d9565b600054610219906001600160a01b031681565b6103e561044c36600461215e565b611a8b565b600154610219906001600160a01b031681565b600081815260036020526040902060028101546104bd5760405162461bcd60e51b8152602060048201526012602482015271141bdcda5d1a5bdb881b9bdd08199bdd5b9960721b60448201526064015b60405180910390fd5b60025460405163524f388960e01b81526000916001600160a01b03169063524f3889906104ec906004016122e5565b602060405180830381865afa158015610509573d6000803e3d6000fd5b505050506040513d601f19601f8201168201806040525081019061052d9190612303565b60408051610140810182528454815260018501546001600160a01b038116602083015260ff600160a01b90910481161515928201929092526002850154606082015260038501546080820152600485015460a0820152600585015460c0820152600685015460e08201526007850154610100820152600885015490911615156101208201529091506105bf9082611cb9565b61060b5760405162461bcd60e51b815260206004820152601960248201527f506f736974696f6e206e6f74206c6971756964617461626c650000000000000060448201526064016104b4565b60408051610140810182528354815260018401546001600160a01b038116602083015260ff600160a01b90910481161515928201929092526002840154606082015260038401546080820152600484015460a0820152600584015460c0820152600684015460e082015260078401546101008201526008840154909116151561012082015260009061069d9083611cd4565b9050600061271060c885600301546106b59190612332565b6106bf919061235f565b6001850154909150600160a01b900460ff16156106f7578360020154600660008282546106ec9190612373565b909155506107139050565b83600201546007600082825461070d9190612373565b90915550505b600180549085015460038601546040516302fe2e9360e31b81526001600160a01b03928316600482015260248101919091529116906317f1749890604401600060405180830381600087803b15801561076b57600080fd5b505af115801561077f573d6000803e3d6000fd5b50506001805490870154604051634a1392ed60e01b81526001600160a01b0391821660048201526024810187905291169250634a1392ed9150604401600060405180830381600087803b1580156107d557600080fd5b505af11580156107e9573d6000803e3d6000fd5b5050600154604051634a1392ed60e01b8152336004820152602481018590526001600160a01b039091169250634a1392ed9150604401600060405180830381600087803b15801561083957600080fd5b505af115801561084d573d6000803e3d6000fd5b505050600185015460405133925087916001600160a01b0316907f68762642199118230172033ae8be4a7146720b6f48baf220112a8b767c5071ab906108969086815260200190565b60405180910390a460018401546108b6906001600160a01b031686611d34565b50505060009182525060036020819052604082208281556001810180546001600160a81b0319169055600281018390559081018290556004810182905560058101829055600681018290556007810191909155600801805460ff19169055565b60006001831015801561092a5750600a8311155b6109695760405162461bcd60e51b815260206004820152601060248201526f496e76616c6964206c6576657261676560801b60448201526064016104b4565b600084116109b25760405162461bcd60e51b81526020600482015260166024820152750436f6c6c61746572616c206d757374206265203e20360541b60448201526064016104b4565b6109bb33611e08565b905060006109c98486612332565b9050600854811115610a125760405162461bcd60e51b8152602060048201526012602482015271506f736974696f6e20746f6f206c6172676560701b60448201526064016104b4565b8515610a8a5760095481600654610a299190612386565b1115610a6d5760405162461bcd60e51b815260206004820152601360248201527213585e081b1bdb99c813d2481c995858da1959606a1b60448201526064016104b4565b8060066000828254610a7f9190612386565b90915550610af89050565b600a5481600754610a9b9190612386565b1115610ae05760405162461bcd60e51b815260206004820152601460248201527313585e081cda1bdc9d0813d2481c995858da195960621b60448201526064016104b4565b8060076000828254610af29190612386565b90915550505b60025460405163524f388960e01b81526000916001600160a01b03169063524f388990610b27906004016122e5565b602060405180830381865afa158015610b44573d6000803e3d6000fd5b505050506040513d601f19601f82011682018060405250810190610b689190612303565b90506000612710610b7a600a85612332565b610b84919061235f565b9050808711610bd55760405162461bcd60e51b815260206004820152601d60248201527f436f6c6c61746572616c20746f6f20736d616c6c20666f72206665657300000060448201526064016104b4565b6000610be18289612373565b6001546040516347a7d10760e01b8152336004820152602481018b90529192506001600160a01b0316906347a7d10790604401600060405180830381600087803b158015610c2e57600080fd5b505af1158015610c42573d6000803e3d6000fd5b50505050604051806101400160405280868152602001336001600160a01b031681526020018a15158152602001858152602001828152602001888152602001848152602001428152602001428152602001871515815250600360008781526020019081526020016000206000820151816000015560208201518160010160006101000a8154816001600160a01b0302191690836001600160a01b0316021790555060408201518160010160146101000a81548160ff021916908315150217905550606082015181600201556080820151816003015560a0820151816004015560c0820151816005015560e0820151816006015561010082015181600701556101208201518160080160006101000a81548160ff02191690831515021790555090505060046000336001600160a01b03166001600160a01b0316815260200190815260200160002085908060018154018082558091505060019003906000526020600020016000909190919091505584336001600160a01b03167fca3f2ca17643972f5b6daffb1f3c92c9b2769f99ae7acfddf066c88767a40fa48b87858c89604051610e129594939291909415158552602085019390935260408401919091526060830152608082015260a00190565b60405180910390a350505050949350505050565b6000546001600160a01b03163314610e6d5760405162461bcd60e51b815260206004820152600a60248201526927b7363c9030b236b4b760b11b60448201526064016104b4565b600855565b6001600160a01b038116600090815260046020908152604091829020805483518184028101840190945280845260609392830182828015610ed257602002820191906000526020600020905b815481526020019060010190808311610ebe575b50505050509050919050565b6000546001600160a01b03163314610f255760405162461bcd60e51b815260206004820152600a60248201526927b7363c9030b236b4b760b11b60448201526064016104b4565b600991909155600a55565b60046020528160005260406000208181548110610f4c57600080fd5b90600052602060002001600091509150505481565b6001546000906001600160a01b03163314610fb15760405162461bcd60e51b815260206004820152601060248201526f13db9b1e481c195c9c1cc81d985d5b1d60821b60448201526064016104b4565b60018210158015610fc35750600a8211155b6110025760405162461bcd60e51b815260206004820152601060248201526f496e76616c6964206c6576657261676560801b60448201526064016104b4565b6000831161104b5760405162461bcd60e51b81526020600482015260166024820152750436f6c6c61746572616c206d757374206265203e20360541b60448201526064016104b4565b506001600160a01b0384166000908152600460209081526040808320548151606089901b6bffffffffffffffffffffffff191681850152426034820152436054820152607480820192909252825180820390920182526094019091528051910120906110b78385612332565b90506008548111156111005760405162461bcd60e51b8152602060048201526012602482015271506f736974696f6e20746f6f206c6172676560701b60448201526064016104b4565b841561117857600954816006546111179190612386565b111561115b5760405162461bcd60e51b815260206004820152601360248201527213585e081b1bdb99c813d2481c995858da1959606a1b60448201526064016104b4565b806006600082825461116d9190612386565b909155506111e69050565b600a54816007546111899190612386565b11156111ce5760405162461bcd60e51b815260206004820152601460248201527313585e081cda1bdc9d0813d2481c995858da195960621b60448201526064016104b4565b80600760008282546111e09190612386565b90915550505b60025460405163524f388960e01b81526000916001600160a01b03169063524f388990611215906004016122e5565b602060405180830381865afa158015611232573d6000803e3d6000fd5b505050506040513d601f19601f820116820180604052508101906112569190612303565b90506000612710611268600a85612332565b611272919061235f565b90508086116112c35760405162461bcd60e51b815260206004820152601d60248201527f436f6c6c61746572616c20746f6f20736d616c6c20666f72206665657300000060448201526064016104b4565b60006112cf8288612373565b90506040518061014001604052808681526020018a6001600160a01b03168152602001891515815260200185815260200182815260200187815260200184815260200142815260200142815260200160011515815250600360008781526020019081526020016000206000820151816000015560208201518160010160006101000a8154816001600160a01b0302191690836001600160a01b0316021790555060408201518160010160146101000a81548160ff021916908315150217905550606082015181600201556080820151816003015560a0820151816004015560c0820151816005015560e0820151816006015561010082015181600701556101208201518160080160006101000a81548160ff021916908315150217905550905050600460008a6001600160a01b03166001600160a01b0316815260200190815260200160002085908060018154018082558091505060019003906000526020600020016000909190919091505584896001600160a01b03167fca3f2ca17643972f5b6daffb1f3c92c9b2769f99ae7acfddf066c88767a40fa48a87858b89604051610e129594939291909415158552602085019390935260408401919091526060830152608082015260a00190565b6115046040518061014001604052806000801916815260200160006001600160a01b031681526020016000151581526020016000815260200160008152602001600081526020016000815260200160008152602001600081526020016000151581525090565b506000908152600360208181526040928390208351610140810185528154815260018201546001600160a01b0381169382019390935260ff600160a01b909304831615159481019490945260028101546060850152918201546080840152600482015460a0840152600582015460c0840152600682015460e0840152600782015461010084015260089091015416151561012082015290565b600081815260036020526040902060028101546115f15760405162461bcd60e51b8152602060048201526012602482015271141bdcda5d1a5bdb881b9bdd08199bdd5b9960721b60448201526064016104b4565b60018101546001600160a01b031633146116425760405162461bcd60e51b81526020600482015260126024820152712737ba103837b9b4ba34b7b71037bbb732b960711b60448201526064016104b4565b60025460405163524f388960e01b81526000916001600160a01b03169063524f388990611671906004016122e5565b602060405180830381865afa15801561168e573d6000803e3d6000fd5b505050506040513d601f19601f820116820180604052508101906116b29190612303565b90506116bd83611e68565b60408051610140810182528354815260018401546001600160a01b038116602083015260ff600160a01b90910481161515928201929092526002840154606082015260038401546080820152600484015460a0820152600584015460c0820152600684015460e082015260078401546101008201526008840154909116151561012082015260009061174f9083611cd4565b90506000612710600a85600201546117679190612332565b611771919061235f565b905061177d8183612399565b6001850154909250600160a01b900460ff16156117b5578360020154600660008282546117aa9190612373565b909155506117d19050565b8360020154600760008282546117cb9190612373565b90915550505b60015460038501546001600160a01b03909116906317f174989033906117f8908590612386565b6040516001600160e01b031960e085901b1681526001600160a01b0390921660048301526024820152604401600060405180830381600087803b15801561183e57600080fd5b505af1158015611852573d6000803e3d6000fd5b5050600154604051634a1392ed60e01b8152336004820152602481018690526001600160a01b039091169250634a1392ed9150604401600060405180830381600087803b1580156118a257600080fd5b505af11580156118b6573d6000803e3d6000fd5b505060408051858152602081018790528893503392507f1d9566953522dcf767c20a24ed70fba750e27e2edfebb58305732e318dd88077910160405180910390a36108b63386611d34565b60008181526003602081815260408084208151610140810183528154815260018201546001600160a01b038082169583019590955260ff600160a01b9091048116151582850152600280840154606084015295830154608083015260048084015460a0840152600584015460c0840152600684015460e084015260078401546101008401526008909301541615156101208201529354915163524f388960e01b815285948594859485948594859485948594919391169163524f3889916119c891016122e5565b602060405180830381865afa1580156119e5573d6000803e3d6000fd5b505050506040513d601f19601f82011682018060405250810190611a099190612303565b94508060600151600003611a36575060009850889750879650869550859450849250829150819050611a7e565b611a408186611cd4565b9350611a4b81611f70565b9250611a578186612063565b91508060400151816060015182608001518360a001518460c0015199509950995099509950505b9193959799909294969850565b600080600080600080600080600080600460008c6001600160a01b03166001600160a01b03168152602001908152602001600020805480602002602001604051908101604052809291908181526020018280548015611b0957602002820191906000526020600020905b815481526020019060010190808311611af5575b505060025460405163524f388960e01b81529495506001600160a01b03169363524f38899350611b3e925060040190506122e5565b602060405180830381865afa158015611b5b573d6000803e3d6000fd5b505050506040513d601f19601f82011682018060405250810190611b7f9190612303565b94508051600003611ba9575060009850889750879650869550859450849250829150819050611a7e565b60006003600083600081518110611bc257611bc26123c0565b60209081029190910181015182528181019290925260409081016000208151610140810183528154815260018201546001600160a01b03811694820194909452600160a01b90930460ff9081161515928401929092526002810154606084015260038101546080840152600481015460a0840152600581015460c0840152600681015460e08401526007810154610100840152600801541615156101208201529050611c6e8187611cd4565b9450611c7981611f70565b9350611c858187612063565b92508060400151816060015182608001518360a001518460c001519a509a509a509a509a5050509193959799909294969850565b600080611cc68484612063565b612710119150505b92915050565b600080836040015115611cf75760c0840151611cf09084612399565b9050611d0a565b828460c00151611d079190612399565b90505b60008460c00151856060015183611d2191906123d6565b611d2b9190612406565b95945050505050565b6001600160a01b0382166000908152600460205260408120905b8154811015611e025782828281548110611d6a57611d6a6123c0565b906000526020600020015403611df05781548290611d8a90600190612373565b81548110611d9a57611d9a6123c0565b9060005260206000200154828281548110611db757611db76123c0565b906000526020600020018190555081805480611dd557611dd5612434565b60019003818190600052602060002001600090559055611e02565b80611dfa8161244a565b915050611d4e565b50505050565b6005805460009183919083611e1c8361244a565b9091555060405160609290921b6bffffffffffffffffffffffff191660208301526034820152426054820152607401604051602081830303815290604052805190602001209050919050565b60008181526003602052604081206007810154909190611e889042612373565b905080600003611e9757505050565b600063022551008260018560020154611eb09190612332565b611eba9190612332565b611ec4919061235f565b6001840154909150600160a01b900460ff1615611f06578083600301541115611f015780836003016000828254611efb9190612373565b90915550505b611f20565b80836003016000828254611f1a9190612386565b90915550505b426007840155600183015460405182815285916001600160a01b0316907f6fabebfbca1d5c7ddd09feccf6bd036ab34c0ff7c319d32a9bc55592d73eb65f9060200160405180910390a350505050565b6000806127106101f48460600151611f889190612332565b611f92919061235f565b9050600081846080015111611fa8576000611fb8565b818460800151611fb89190612373565b90506000846060015182612710611fcf9190612332565b611fd9919061235f565b9050846040015115612032576000612710828760c00151611ffa9190612332565b612004919061235f565b9050808660c0015111612018576000612028565b808660c001516120289190612373565b9695505050505050565b6000612710828760c001516120479190612332565b612051919061235f565b9050808660c001516120289190612386565b6000806120708484611cd4565b905060008185608001516120849190612463565b90506000811361209957600092505050611cce565b60006127106101f487606001516120b09190612332565b6120ba919061235f565b9050806120c983612710612332565b612028919061235f565b6000602082840312156120e557600080fd5b5035919050565b803580151581146120fc57600080fd5b919050565b6000806000806080858703121561211757600080fd5b612120856120ec565b9350602085013592506040850135915061213c606086016120ec565b905092959194509250565b80356001600160a01b03811681146120fc57600080fd5b60006020828403121561217057600080fd5b61217982612147565b9392505050565b6020808252825182820181905260009190848201906040850190845b818110156121b85783518352928401929184019160010161219c565b50909695505050505050565b600080604083850312156121d757600080fd5b50508035926020909101359150565b600080604083850312156121f957600080fd5b61220283612147565b946020939093013593505050565b6000806000806080858703121561222657600080fd5b61222f85612147565b935061223d602086016120ec565b93969395505050506040820135916060013590565b81518152602080830151610140830191612276908401826001600160a01b03169052565b50604083015161228a604084018215159052565b50606083015160608301526080830151608083015260a083015160a083015260c083015160c083015260e083015160e0830152610100808401518184015250610120808401516122dd8285018215159052565b505092915050565b602080825260049082015263242120a960e11b604082015260600190565b60006020828403121561231557600080fd5b5051919050565b634e487b7160e01b600052601160045260246000fd5b8082028115828204841417611cce57611cce61231c565b634e487b7160e01b600052601260045260246000fd5b60008261236e5761236e612349565b500490565b81810381811115611cce57611cce61231c565b80820180821115611cce57611cce61231c565b81810360008312801583831316838312821617156123b9576123b961231c565b5092915050565b634e487b7160e01b600052603260045260246000fd5b80820260008212600160ff1b841416156123f2576123f261231c565b8181058314821517611cce57611cce61231c565b60008261241557612415612349565b600160ff1b82146000198414161561242f5761242f61231c565b500590565b634e487b7160e01b600052603160045260246000fd5b60006001820161245c5761245c61231c565b5060010190565b80820182811260008312801582168215821617156122dd576122dd61231c56fea264697066735822122001218dd2739622006697c3e3ae903687e0b0d40fa9c61525fdda6c04cebfe31064736f6c63430008140033",
  "linkReferences": {},
  "deployedLinkReferences": {}
}